:1000000009C00EC00DC00CC00BC00AC009C008C09A
:1000100007C006C011241FBECFE9CDBF57D068C1AD
:10002000EFCFAF92BF92CF92DF92EF92FF920F93FA
:100030001F93CF93DF93CDB7DD27C550CDBF9C0174
:10004000FE01319685E0DF011D928A95E9F740E0D7
:1000500002E010E02115310589F0C901B8010DD188
:1000600037FF02C02F5F3F4F35952795DF01A40F63
:10007000B11D47FDBA958C934F5FECCFA9800A2C38
:10008000000CBB08CA800C2C000CDD08EB800E2C89
:10009000000CFF080C81002E000C110B2D81022E8C
:1000A000000C330B40E050E060E070E080E090E056
:1000B0005BD0CB5FCDBFDF91CF911F910F91FF90B0
:1000C000EF90DF90CF90BF90AF900895CF93DF93E4
:1000D0009ED093D0BED06FE180E090E0FCD065E18F
:1000E00081E090E0F8D065E182E090E0F4D064E057
:1000F00083E090E0F0D064E084E090E0ECD064E055
:1001000085E090E0E8D064E086E090E0E4D06EE046
:1001100087E090E0E0D0C0E0D0E0CE01D5D090E024
:1001200080DF2196C830D105C1F767D09CD080E030
:1001300090E0DF91CF91089588B38C7F88BBC19AFE
:10014000089581E088BBC19A0895C29A83EF91E037
:100150000197F1F700C00000C29883EF91E001978A
:10016000F1F700C0000008956F927F928F929F92E6
:10017000AF92BF92CF92DF92EF92FF920F931F93B5
:10018000CF93DF933B014A01E901892B11F4D4DFBE
:1001900001C0D7DF672811F4CFDF01C0D2DF892883
:1001A00011F4CADF01C0CDDFCD2B11F4C5DF01C0D2
:1001B000C8DF012B11F4C0DF01C0C3DFEF2811F449
:1001C000BBDF01C0BEDFCD2811F4B6DF01C0B9DF4F
:1001D000AB2811F4B1DF01C0B4DFC39ADF91CF9136
:1001E0001F910F91FF90EF90DF90CF90BF90AF9055
:1001F0009F908F907F906F90A8CF9EDF9DDF9CDFB8
:100200009BDF9ADF99DF98DF9CDFC3989ECF87B38F
:100210008F6087BB18BA90DF8FDF93DF92DF91DFAB
:100220008BDF8ADF89DFC39890DF86DF85DF84DF9D
:1002300083DF87DF86DF85DF7FDFC39886DF7CDFB4
:100240007BDF7ADF79DF78DF7CDF7BDF75DFC398E8
:100250007CCF72DF76DF70DF6FDF6EDF6DDF6CDF2C
:100260006BDFC39872CF68DF67DF66DF65DF64DF4F
:1002700063DF62DF61DFC39A68CF97FB072E16F456
:10028000009406D077FD08D00BD007FC05D03EF4D3
:10029000909581959F4F0895709561957F4F089532
:1002A000AA1BBB1B51E107C0AA1FBB1FA617B7079C
:1002B00010F0A61BB70B881F991F5A95A9F78095B8
:1002C0009095BC01CD010895E199FECF8EBBE09AD7
:1002D00099278DB30895262FE199FECF1CBA8EBBC6
:1002E0002DBB0FB6F894E29AE19A0FBE01960895DD
:0402F000F894FFCFB0
:00000001FF
