:1000000009C00EC00DC00CC00BC00AC009C008C09A
:1000100007C006C011241FBECFE9CDBF02D0A5C0C6
:10002000EFCF4BD040D0C0E0D0E033D080E090E0C4
:100030008C010F5F1F4F8C179D0719F08CD0C801E2
:10004000F7CF85D02FEC8BEF91E02150804090408E
:10005000E1F700C0000027D0E8010131110529F7C0
:10006000E2CF88B38C7F88BBC19A089581E088BBBA
:10007000C19A0895C29A83EF91E00197F1F700C009
:100080000000C29883EF91E00197F1F700C00000F3
:100090000895E7DFE6DFE5DFE4DFE3DFE2DFE6DF69
:1000A000E0DFC398E7CFDDDFDCDFDBDFDADFD9DFDE
:1000B000D8DFD7DFDBDFC398DDCF87B38F6087BBA7
:1000C00018BACFDFCEDFD2DFD1DFD0DFCADFC9DFA2
:1000D000C8DFC398CFDFC5DFC4DFC3DFC2DFC6DF41
:1000E000C5DFBFDFBEDFC398C5DFBBDFBADFB9DF67
:1000F000B8DFB7DFBBDFBADFB4DFC398BBCFB1DF98
:10010000B5DFAFDFAEDFB2DFB1DFABDFAADFC39AAF
:10011000B1CFA7DFABDFA5DFA4DFA8DFA7DFA6DFB6
:10012000A5DFC39AA7CF9DDFA1DF9BDF9ADF99DF11
:1001300098DF9CDF9BDFC39A9DCF93DF97DF91DF32
:1001400090DF94DF8EDF92DF91DFC39A93CFD7DF0A
:10015000E0DFE9DFF2CF8ADF89DF88DF87DF86DF54
:0E01600085DF84DF7EDFC39A85CFF894FFCF62
:00000001FF
