:1000000009C021C020C02EC01EC01DC01CC01BC006
:100010001AC019C011241FBECFE9CDBF10E0A0E661
:10002000B0E0E4E4F2E002C005900D92A836B1071A
:10003000D9F720E0A8E6B0E001C01D92AB36B207C8
:10004000E1F706D0FDC0DCCFBAC0C3C0CCC0D5C07C
:1000500094D089D083B7856083BF89B7826089BF18
:100060007894FFCF1F920F920FB60F9211242F9307
:100070003F934F935F936F937F938F939F93AF9330
:10008000BF93EF93FF9365D080916A008F5F24E068
:10009000622FBDD090936A0019163CF080916900E0
:1000A0008F5F622FB4D090936900E0916800EE0FEB
:1000B000FF0BE05AFF4F0190F081E02D0995E09190
:1000C0006900EE0FFF0BE05AFF4F0190F081E02D29
:1000D0000995E0916A00EE0FFF0BE05AFF4F019087
:1000E000F081E02D099580916A00833049F4809178
:1000F0006900833029F4809168008F5F80936800E5
:10010000FF91EF91BF91AF919F918F917F916F91EF
:100110005F914F913F912F910F900FBE0F901F90C5
:10012000189588B38C7F88BBC19A089581E088BBFD
:10013000C19A0895C29A83EF91E00197F1F700C048
:100140000000C29883EF91E00197F1F700C0000032
:100150000895E7DFE6DFE5DFE4DFE3DFE2DFE6DFA8
:10016000E0DFC398E7CFDDDFDCDFDBDFDADFD9DF1D
:10017000D8DFD7DFDBDFC398DDCF87B38F6087BBE6
:1001800018BACFDFCEDFD2DFD1DFD0DFCADFC9DFE1
:10019000C8DFC398CFDFC5DFC4DFC3DFC2DFC6DF80
:1001A000C5DFBFDFBEDFC398C5DFBBDFBADFB9DFA6
:1001B000B8DFB7DFBBDFBADFB4DFC398BBCFB1DFD7
:1001C000B0DFB4DFB3DFADDFACDFABDFAADFC39AF4
:1001D000B1CFA7DFA6DFAADFA9DFA3DFA2DFA1DF00
:1001E000A5DFC39AA7CF9DDF9CDFA0DF9FDF99DF4C
:1001F00098DF9CDF96DFC39A9DCF93DF92DF96DF77
:1002000095DF8FDF8EDF92DF91DFC39A93CF87FB7D
:10021000082E062687FD819567FD619505D00EF4B1
:10022000919507FC81950895991B79E004C0991F69
:10023000961708F0961B881F7A95C9F78095089540
:04024000F894FFCF60
:0802440024002500260027001C
:00000001FF
