:1000000009C019C018C017C016C015C014C013C04D
:1000100012C011C011241FBECFE9CDBF10E0A0E671
:10002000B0E0E4ECF1E002C005900D92AC38B1070D
:10003000D9F702D0C5C0E4CF38D024D080E690E014
:10004000B4D08EE690E0B1D086E790E0AED080E00C
:1000500090E0089588B38A7F88BBC29A089581E0B2
:1000600088BBC29A0895C39A83EF91E00197F1F794
:1000700000C00000C39883EF91E00197F1F700C042
:1000800000000895E7DFE6DFE5DFE4DFE3DFEBDF35
:10009000E1DFE0DFDFDFDEDFE2DFE5DF8DEE92E0F4
:1000A0000197F1F700C00000089587B38F6087BB08
:1000B00018BAD0DFCFDFCEDFD2DFD1DFD4DF81EEE1
:1000C00094E00197F1F700C00000C4DFC3DFC2DF96
:1000D000C6DFC5DFC8DF83EF91E00197F1F700C00D
:1000E0000000C1DFB7DFB6DFB5DFB9DFB3DFBBDFED
:1000F00083EF91E00197F1F700C00000B4DFAADFC1
:10010000AEDFA8DFA7DFA6DFAEDFA4DFA3DFA2DFBD
:10011000A1DFA0DFA8DF9EDFA2DF9CDF9BDF9ADFED
:10012000A2DFB0DF97DF96DF95DF94DF93DF9BDF01
:1001300091DF90DF94DF93DF8DDF95DF8BDF8ADF48
:1001400089DF88DF87DF8FDF85DF89DF88DF82DF78
:1001500081DF89CF811101C07DCF81CFCF93C82F9F
:100160007EDF8C2F881F8827881FF4DFC6FB882737
:1001700080F9F0DFC5FB882780F9ECDFC4FB882716
:1001800080F9E8DF70DF6BDFC3FB882780F9E2DFEF
:10019000C2FB882780F9DEDFC1FB882780F9DADF20
:1001A0008C2F8170D7DFCF915ECFCF93DF93EC019F
:1001B0008991882311F0D2DFFBCFDF91CF91089591
:0401C000F894FFCFE1
:1001C400416E6472657720526F636B732100202047
:1001D40020202020200045617369657220746861C5
:0C01E4006E20657870656374656400002F
:00000001FF
