:1000000009C016C015C014C013C012C011C010C062
:100010000FC00EC011241FBECFE9CDBF20E0A0E667
:10002000B0E001C01D92A236B207E1F79CD0CEC16C
:10003000E7CF369A3699FECF85B190E00895AF921A
:10004000BF92CF92DF92EF92FF920F931F93CF93C5
:10005000DF93CDB7DD27C850CDBF9C01FE0131969F
:1000600088E0DF011D928A95E9F702E010E0211592
:10007000310561F0C901B80182D137FF02C02F5F9D
:100080003F4F3595279581939193F1CFA980BA8001
:10009000CB80DC80ED80FE800F81188521E030E090
:1000A00041E050E060E070E080E090E0E2D0C85FC6
:1000B000CDBFDF91CF911F910F91FF90EF90DF9017
:1000C000CF90BF90AF900895AF92BF92CF92DF9242
:1000D000EF92FF920F931F93CF93DF939C0164E6FF
:1000E00070E04DD1FB01C9016AE070E048D1EB013D
:1000F000CF0166EF7FEF32D1C80FD91FCE0166EF77
:100100007FEF2CD18901080F191FCF016CE97FEF18
:1001100025D1080F191F2436310514F0CF018FDFC8
:10012000CE018DDFC8018BDFAA24A394B12CCC248F
:10013000C394D12CEE24E394F12C01E010E021E0F3
:1001400030E040E050E061E070E081E090E091D08C
:10015000DF91CF911F910F91FF90EF90DF90CF90A3
:10016000BF90AF900895D8D0399A3D9A86B18368F0
:1001700086B97BEF872E99249A945BDF97FD0396CF
:100180009595879595958795EC01289780916000C6
:1001900090916100C817D90709F44CC0D093610051
:1001A000C0936000AFD0CE018FDFAA24A394B12CFE
:1001B000CC24C394D12CE12CF12C00E010E020E001
:1001C00030E040E050E061E070E080E090E051D04D
:1001D00053E0652E712CA12CB12CC12CD12CE12C1B
:1001E000F12C00E010E020E030E040E050E060E082
:1001F00070E081E090E03DD081E0681A710859F725
:100200009E01220F331FCE01B401B9D0C901860F60
:10021000971F809659DFCC24C394D12CEE24E3940D
:10022000F12C20E030E040E050E061E070E080E060
:1002300090E01FD087EA91E60197F1F700C0000037
:100240009CCF88B38C7F88BBC19A089581E088BB1E
:10025000C19A0895C29A83EF91E00197F1F700C027
:100260000000C29883EF91E00197F1F700C0000011
:1002700008956F927F928F929F92AF92BF92CF928A
:10028000DF92EF92FF920F931F93CF93DF933B0187
:100290004A01E901892B11F4D4DF01C0D7DF6728B7
:1002A00011F4CFDF01C0D2DF892811F4CADF01C009
:1002B000CDDFCD2B11F4C5DF01C0C8DF012B11F458
:1002C000C0DF01C0C3DFEF2811F4BBDF01C0BEDF18
:1002D000CD2811F4B6DF01C0B9DFAB2811F4B1DFCE
:1002E00001C0B4DFC39ADF91CF911F910F91FF90AE
:1002F000EF90DF90CF90BF90AF909F908F907F90C6
:100300006F90A8CF9EDF9DDF9CDF9BDF9ADF99DF98
:1003100098DF9CDFC3989ECF87B38F6087BB18BAE6
:1003200090DF8FDF93DF92DF91DF8BDF8ADF89DF62
:10033000C39890DF86DF85DF84DF83DF87DF86DF9A
:1003400085DF7FDFC39886DF7CDF7BDF7ADF79DFC5
:1003500078DF7CDF7BDF75DFC3987CCF00245527F7
:1003600004C0080E591F880F991F009729F0769531
:100370006795B8F37105B9F7802D952F089597FB10
:10038000072E16F4009406D077FD08D00BD007FC9A
:1003900005D03EF4909581959F4F08957095619595
:1003A0007F4F0895AA1BBB1B51E107C0AA1FBB1FAB
:1003B000A617B70710F0A61BB70B881F991F5A95F1
:1003C000A9F780959095BC01CD010895F894FFCFD1
:00000001FF
