:1000000009C079C050C015C013C012C011C010C0C3
:100010000FC00EC011241FBECFE9CDBF20E0A0E667
:10002000B0E001C01D92A436B207E1F719D0AAC012
:10003000E7CF1F920F920FB60F9211248F939F93C9
:100040008091620090916300019690936300809389
:1000500062009F918F910F900FBE0F901F90189587
:10006000A89A8BB780628BBF8BB780648BBF83E00D
:1000700085BF789488E187BB18BA89B7826089BF49
:1000800083EC99E00197F1F700C0000080916200D5
:1000900090916300C2971CF483B7816002C083B75C
:1000A000887F83BFEDCF1F920F920FB60F9211245E
:1000B0008F939F9383B7887F83BF809162009091D5
:1000C0006300109263001092620044976CF098B342
:1000D00088E0892788BB809160009091610001963B
:1000E00090936100809360009F918F910F900FBE5D
:1000F0000F901F9018951F920F920FB60F92112418
:100100002F933F934F935F938F939F93EF93FF931F
:10011000809160009091610097FD0196959587957B
:10012000909361008093600081E090E040E1209135
:10013000600030916100281739079CF048BB2FE917
:1001400036E851E0215030405040E1F700C0000057
:1001500018BAE7EAF1E63197F1F700C0000001961E
:10016000E6CF1092610010926000FF91EF919F9195
:100170008F915F914F913F912F910F900FBE0F90F4
:080180001F901895F894FFCFC1
:00000001FF
