:1000000009C019C00DC00CC00BC00AC009C008C08F
:1000100007C006C011241FBECFE9CDBF02D04EC01D
:10002000EFCF8BB780648BBF83E085BF789480E18E
:1000300087BB18BAFFCF1F920F920FB60F921124F1
:100040002F933F938F939F9398B380E1982798BB0A
:100050002FE936E891E0215030409040E1F700C0B0
:10006000000098B3982798BB2FE936E891E021501B
:1000700030409040E1F700C0000098B3982798BB4B
:100080002FE936E891E0215030409040E1F700C080
:10009000000098B3892788BB2FE936E881E021501A
:1000A00030408040E1F700C000009F918F913F9168
:1000B0002F910F900FBE0F901F901895F894FFCFBF
:00000001FF
