:1000000009C030C01CC00CC00BC00AC009C008C069
:1000100007C006C011241FBECFE9CDBF02D045C026
:10002000EFCFA89A8BB780628BBF8BB780648BBFF2
:1000300083E085BF789488E187BB18BAFFCF7894B6
:100040001F920F920FB60F9211248F939F9398B324
:1000500088E0892788BB9F918F910F900FBE0F90EA
:100060001F90189578941F920F920FB60F9211243B
:100070002F933F938F939F9398B380E1982798BBDA
:100080002FE332E49FE0215030409040E1F700C080
:10009000000098B3892788BB9F918F913F912F9142
:0E00A0000F900FBE0F901F901895F894FFCF91
:00000001FF
