:1000000009C016C04BC015C013C012C011C010C02B
:100010000FC00EC011241FBECFE9CDBF20E0A0E667
:10002000B0E001C01D92A236B207E1F719D055C069
:10003000E7CF1F920F920FB60F9211248F939F93C9
:10004000809160009091610001969093610080938F
:1000500060009F918F910F900FBE0F901F90189589
:10006000A89A8BB780628BBF789480E187BB18BA5F
:1000700089B7826089BF83EC99E00197F1F700C0EE
:1000800000008091600090916100C2971CF483B7DA
:10009000816002C083B7887F83BFEDCF1F920F922C
:1000A0000FB60F9211248F939F9383B7887F83BFDE
:1000B0008091600090916100109261001092600048
:1000C0000F9724F098B380E1892788BB9F918F9187
:0E00D0000F900FBE0F901F901895F894FFCF61
:00000001FF
