:1000000009C00EC0A5C00CC00BC00AC009C008C002
:1000100007C006C011241FBECFE9CDBF8FD04DC190
:10002000EFCFAF92BF92CF92DF92EF92FF920F93FA
:100030001F93A12CB12CC12CD12CE12CF12C01E06F
:1000400010E020E030E040E050E061E070E080E06F
:1000500090E0BED0AA24A394B12C20E030E040E090
:1000600050E061E070E080E090E0B2D0CC24C39436
:10007000D12CEE24E394F12C00E010E020E030E0FD
:1000800040E050E061E070E080E090E0A1D0A12C81
:10009000B12CC12CD12CE12CF12C01E010E020E09E
:1000A00030E040E050E061E070E080E090E090D02F
:1000B0001F910F91FF90EF90DF90CF90BF90AF9086
:1000C0000895AF92BF92CF92DF92EF92FF920F937B
:1000D0001F93A12CB12CC12CD12CEE24E394F12C34
:1000E00001E010E020E030E040E050E061E070E04E
:1000F00080E090E06DD0AA24A394B12CCC24C394CA
:10010000D12C20E030E040E050E061E070E080E0A1
:1001100090E05ED000E010E021E030E040E050E010
:1001200061E070E080E090E053D01F910F91FF906C
:10013000EF90DF90CF90BF90AF900895AC9A8BB7BF
:1001400080628BBF7894BC9896D08BD0BADFFFCFFB
:100150001F920F920FB60F9211242F933F934F933C
:100160005F936F937F938F939F93AF93BF93EF931F
:10017000FF9377D0B49B02C054DF01C0A2DFFF9190
:10018000EF91BF91AF919F918F917F916F915F910F
:100190004F913F912F910F900FBE0F901F90189588
:1001A00088B38C7F88BBC19A089581E088BBC19ACF
:1001B0000895C29A83EF91E00197F1F700C0000023
:1001C000C29883EF91E00197F1F700C00000089515
:1001D0006F927F928F929F92AF92BF92CF92DF9257
:1001E000EF92FF920F931F93CF93DF933B014A014E
:1001F000E901892B11F4D4DF01C0D7DF672811F49E
:10020000CFDF01C0D2DF892811F4CADF01C0CDDF02
:10021000CD2B11F4C5DF01C0C8DF012B11F4C0DF05
:1002200001C0C3DFEF2811F4BBDF01C0BEDFCD2862
:1002300011F4B6DF01C0B9DFAB2811F4B1DF01C0A2
:10024000B4DFC39ADF91CF911F910F91FF90EF9090
:10025000DF90CF90BF90AF909F908F907F906F90E6
:10026000A8CF9EDF9DDF9CDF9BDF9ADF99DF98DFC1
:100270009CDFC3989ECF87B38F6087BB18BA90DF8F
:100280008FDF93DF92DF91DF8BDF8ADF89DFC39817
:1002900090DF86DF85DF84DF83DF87DF86DF85DF32
:1002A0007FDFC39886DF7CDF7BDF7ADF79DF78DF73
:0E02B0007CDF7BDF75DFC3987CCFF894FFCF37
:00000001FF
