:1000000009C016C0B1C015C013C012C011C010C0C5
:100010000FC00EC011241FBECFE9CDBF20E0A0E667
:10002000B0E001C01D92A336B207E1F766D0A1C1CE
:10003000E7CF1F920F920FB60F9211248F938091EA
:1000400062008F5F809362008F910F900FBE0F90C0
:100050001F901895AF92BF92CF92DF92EF92FF92CE
:100060000F931F93CF93DF93CDB7DD27C450CDBF40
:100070009C0119821A821B821C8240E0E2E0F0E0BF
:1000800021153105A1F0C901BF014CD137FF02C0D4
:100090002F5F3F4F35952795A1E0B0E0AC0FBD1F16
:1000A000A40FB11D47FDBA958C934F5FE9CFA9808E
:1000B0000A2C000CBB08CA800C2C000CDD08EB805D
:1000C0000E2C000CFF080C81002E000C110B21E0FF
:1000D00030E041E050E060E070E080E090E0ADD0E2
:1000E000CC5FCDBFDF91CF911F910F91FF90EF902B
:1000F000DF90CF90BF90AF900895F2D0AC9A8BB7BD
:1001000080628BBF789489B7826089BFDFD08BD043
:1001100080E090E09FDF83EC99E00197F1F700C069
:1001200000008091620082331CF483B7816002C0BA
:1001300083B7887F83BFEFCF0F931F93CF93DF9356
:10014000EC018B01209759F0CE01B801EBD0EB0107
:10015000082E000C990B7EDF5CD05BD0F3CFDF91D3
:10016000CF911F910F9108951F920F920FB60F928A
:1001700011242F933F934F935F936F937F938F93AC
:100180009F93AF93BF93EF93FF9383B7887F83BF12
:1001900080916200109262008F3094F08091600034
:1001A00090916100019690936100809360008ED0E1
:1001B0003AD06AE070E08091600090916100BCDF0D
:1001C000FF91EF91BF91AF919F918F917F916F912F
:1001D0005F914F913F912F910F900FBE0F901F9005
:1001E000189588B38C7F88BBC19A089581E088BB3D
:1001F000C19A0895C29A83EF91E00197F1F700C088
:100200000000C29883EF91E00197F1F700C0000071
:100210000895E7DFE6DFE5DFE9DFE3DFE2DFE1DFE7
:10022000E0DFC398E7CFE2DFDCDFDBDFDADFDEDF52
:10023000DDDFDCDFDBDFC398DDCF6F927F928F9253
:100240009F92AF92BF92CF92DF92EF92FF920F9365
:100250001F93CF93DF933B014A01E901892B11F4EE
:10026000C0DF01C0C3DF672811F4BBDF01C0BEDF00
:10027000892811F4B6DF01C0B9DFCD2B11F4B1DF4D
:1002800001C0B4DF012B11F4ACDF01C0AFDFEF28F8
:1002900011F4A7DF01C0AADFCD2811F4A2DF01C04D
:1002A000A5DFAB2811F49DDF01C0A0DFC39ADF9169
:1002B000CF911F910F91FF90EF90DF90CF90BF9063
:1002C000AF909F908F907F906F9094CF8ADF89DF5F
:1002D00088DF87DF86DF85DF84DF88DFC3988ACF0A
:1002E00087B38F6087BB18BA7CDF7BDF7FDF7EDF61
:1002F0007DDF77DF76DF75DFC3987CDF72DF71DF4C
:1003000070DF6FDF73DF72DF71DF6BDFC39872DF67
:1003100068DF67DF66DF65DF64DF68DF67DF61DFB7
:10032000C39868CF97FB072E16F4009406D077FD8C
:1003300008D00BD007FC05D03EF4909581959F4FD7
:100340000895709561957F4F0895AA1BBB1B51E1DD
:1003500007C0AA1FBB1FA617B70710F0A61BB70B35
:10036000881F991F5A95A9F780959095BC01CD01DA
:060370000895F894FFCF90
:00000001FF
