:1000000009C019C018C017C016C015C014C013C04D
:1000100012C011C011241FBECFE9CDBF10E0A0E671
:10002000B0E0EEE5F1E002C005900D92A037B10717
:10003000D9F702D092C0E4CF2AD01FD084D073D099
:100040001CD047D080E090E0089588B38C7F88BBB7
:10005000C19A089581E088BBC19A0895C29A83EF3E
:1000600091E00197F1F700C00000C29883EF91E0A2
:100070000197F1F700C000000895E7DFE6DFE5DF54
:10008000E4DFE3DFE2DFE1DFE5DFC398E7CF87B35B
:100090008F6087BB18BAD9DFD8DFDCDFDBDFDADFC0
:1000A000D4DFD3DFD2DFC398D9DFCFDFCEDFCDDF20
:1000B000CCDFD0DFCFDFCEDFC8DFC398CFDFC5DF37
:1000C000C4DFC3DFC2DFC1DFC5DFC4DFBEDFC3986B
:1000D000C5CFBBDFBADFB9DFB8DFB7DFB6DFB5DF6B
:1000E000B4DFC39ABBCF0F931F93CF93DF938C01E1
:1000F000C0E0D0E0C330D10514F4A7DF0BC0CE01BF
:100100000397980102C0359527958A95E2F720FF5D
:10011000F4CFA0DF2196C830D10561F7DF91CF91F0
:100120001F910F910895CF93DF93C0E6D0E089919E
:100130009991D9DFC39A92DF80E0C037D807B9F729
:10014000DF91CF91089581DF85DF7FDF7EDF7DDF67
:0E0150007CDF7BDF7ADFC39881CFF894FFCF8E
:10015E0011000A0015000A0019000A000C0019000F
:00000001FF
