:1000000009C016C015C015C013C012C011C010C061
:100010000FC00EC011241FBECFE9CDBF20E0A0E667
:10002000B0E001C01D92A236B207E1F728D033C07C
:10003000E7CF1F920F920FB60F9211248F939F93C9
:10004000809160009091610001969093610080938F
:100050006000883091051CF480E188BB09C08436BB
:10006000910514F418BA04C0109261001092600057
:100070009F918F910F900FBE0F901F901895F8943D
:1000800080E187BB18BA83B7816083BF89B782607C
:0A00900089BF7894FFCFF894FFCFEA
:00000001FF
