:1000000009C016C015C08AC013C012C011C010C0EC
:100010000FC00EC011241FBECFE9CDBF20E0A0E667
:10002000B0E001C01D92A236B207E1F702D07BC159
:10003000E7CFDDD0C8D083B7816083BF89B7826046
:1000400089BF7894FFCFAF92BF92CF92DF92EF92A9
:10005000FF920F931F93CF93DF93CDB7DD27C4504B
:10006000CDBF9C0119821A821B821C8240E0E2E013
:10007000F0E021153105A1F0C901BF012DD137FFF5
:1000800002C02F5F3F4F35952795A1E0B0E0AC0F40
:10009000BD1FA40FB11D47FDBA958C934F5FE9CFEB
:1000A000A9800A2C000CBB08CA800C2C000CDD08AF
:1000B000EB800E2C000CFF080C81002E000C110BA5
:1000C00021E030E041E050E060E070E080E090E06E
:1000D000BAD0CC5FCDBFDF91CF911F910F91FF9030
:1000E000EF90DF90CF90BF90AF9008950F931F9344
:1000F000CF93DF93EC018B01209759F0CE01B8012B
:10010000EBD0EB01082E000C990B9DDF66D065D07B
:10011000F3CFDF91CF911F910F9108951F920F920E
:100120000FB60F9211242F933F934F935F936F93CA
:100130007F938F939F93AF93BF93EF93FF9379D068
:10014000809160009091610081968D322EE7920738
:100150002CF4909361008093600005C010926100C0
:100160001092600030D06AE070E080916000909161
:100170006100BCDFFF91EF91BF91AF919F918F9193
:100180007F916F915F914F913F912F910F900FBE93
:100190000F901F90189588B38C7F88BBC19A0895E3
:1001A00081E088BBC19A0895C29A83EF91E00197DC
:1001B000F1F700C00000C29883EF91E00197F1F7DA
:1001C00000C000000895E7DFE6DFE5DFE4DFE3DFFE
:1001D000E2DFE1DFE5DFC398E7CFDDDFDCDFDBDF98
:1001E000DFDFD9DFD8DFD7DFD6DFC398DDCF87B336
:1001F0008F6087BB18BACFDFCEDFD2DFD1DFD0DF91
:10020000CADFC9DFC8DFC398CFDFC5DFC4DFC3DF04
:10021000C2DFC6DFC5DFBFDFBEDFC398C5DFBBDF20
:10022000BADFB9DFB8DFB7DFBBDFBADFB4DFC3984F
:10023000BBCFB6DFB0DFAFDFAEDFB2DFB1DFB0DF45
:10024000AFDFC398B1CF6F927F928F929F92AF92A0
:10025000BF92CF92DF92EF92FF920F931F93CF93B3
:10026000DF933B014A01E901892B11F494DF01C0BE
:1002700097DF672811F48FDF01C092DF892811F41E
:100280008ADF01C08DDFCD2B11F485DF01C088DF4F
:10029000012B11F480DF01C083DFEF2811F47BDF35
:1002A00001C07EDFCD2811F476DF01C079DFAB28F5
:1002B00011F471DF01C074DFC39ADF91CF911F91F8
:1002C0000F91FF90EF90DF90CF90BF90AF909F90F5
:1002D0008F907F906F9068CF97FB072E16F4009455
:1002E00006D077FD08D00BD007FC05D03EF49095E2
:1002F00081959F4F0895709561957F4F0895AA1B32
:10030000BB1B51E107C0AA1FBB1FA617B70710F000
:10031000A61BB70B881F991F5A95A9F78095909532
:0A032000BC01CD010895F894FFCF51
:00000001FF
